{
    "_format": "hh-sol-artifact-1",
    "contractName": "Lighting",
    "sourceName": "contracts/lighting.sol",
    "abi": [
        {
            "inputs": [
                {
                    "internalType": "uint256",
                    "name": "producerId",
                    "type": "uint256"
                },
                {
                    "internalType": "uint256",
                    "name": "epochDate",
                    "type": "uint256"
                },
                {
                    "components": [
                        {
                            "internalType": "uint256",
                            "name": "consumed",
                            "type": "uint256"
                        },
                        {
                            "internalType": "uint256",
                            "name": "produced",
                            "type": "uint256"
                        },
                        {
                            "internalType": "uint256",
                            "name": "date",
                            "type": "uint256"
                        }
                    ],
                    "internalType": "struct Lighting.ElectricityRecord",
                    "name": "record",
                    "type": "tuple"
                }
            ],
            "name": "addRecord",
            "outputs": [],
            "stateMutability": "nonpayable",
            "type": "function"
        },
        {
            "inputs": [
                {
                    "internalType": "uint256",
                    "name": "",
                    "type": "uint256"
                },
                {
                    "internalType": "uint256",
                    "name": "",
                    "type": "uint256"
                }
            ],
            "name": "electricalRecords",
            "outputs": [
                {
                    "internalType": "uint256",
                    "name": "consumed",
                    "type": "uint256"
                },
                {
                    "internalType": "uint256",
                    "name": "produced",
                    "type": "uint256"
                },
                {
                    "internalType": "uint256",
                    "name": "date",
                    "type": "uint256"
                }
            ],
            "stateMutability": "view",
            "type": "function"
        },
        {
            "inputs": [
                {
                    "internalType": "uint256",
                    "name": "producerId",
                    "type": "uint256"
                },
                {
                    "internalType": "uint256",
                    "name": "dateInEpoch",
                    "type": "uint256"
                }
            ],
            "name": "getCompanyRecord",
            "outputs": [
                {
                    "components": [
                        {
                            "internalType": "uint256",
                            "name": "consumed",
                            "type": "uint256"
                        },
                        {
                            "internalType": "uint256",
                            "name": "produced",
                            "type": "uint256"
                        },
                        {
                            "internalType": "uint256",
                            "name": "date",
                            "type": "uint256"
                        }
                    ],
                    "internalType": "struct Lighting.ElectricityRecord",
                    "name": "",
                    "type": "tuple"
                }
            ],
            "stateMutability": "view",
            "type": "function"
        },
        {
            "inputs": [
                {
                    "internalType": "uint256",
                    "name": "producerId",
                    "type": "uint256"
                },
                {
                    "internalType": "uint256",
                    "name": "dateInEpoch",
                    "type": "uint256"
                }
            ],
            "name": "getConsumedRecord",
            "outputs": [
                {
                    "internalType": "uint256",
                    "name": "",
                    "type": "uint256"
                }
            ],
            "stateMutability": "view",
            "type": "function"
        },
        {
            "inputs": [
                {
                    "internalType": "uint256",
                    "name": "producerId",
                    "type": "uint256"
                }
            ],
            "name": "getEntityLast10Records",
            "outputs": [
                {
                    "components": [
                        {
                            "internalType": "uint256",
                            "name": "consumed",
                            "type": "uint256"
                        },
                        {
                            "internalType": "uint256",
                            "name": "produced",
                            "type": "uint256"
                        },
                        {
                            "internalType": "uint256",
                            "name": "date",
                            "type": "uint256"
                        }
                    ],
                    "internalType": "struct Lighting.ElectricityRecord[]",
                    "name": "",
                    "type": "tuple[]"
                }
            ],
            "stateMutability": "view",
            "type": "function"
        },
        {
            "inputs": [
                {
                    "internalType": "uint256",
                    "name": "producerId",
                    "type": "uint256"
                },
                {
                    "internalType": "uint256",
                    "name": "dateInEpoch",
                    "type": "uint256"
                }
            ],
            "name": "getProducedRecord",
            "outputs": [
                {
                    "internalType": "uint256",
                    "name": "",
                    "type": "uint256"
                }
            ],
            "stateMutability": "view",
            "type": "function"
        },
        {
            "inputs": [],
            "name": "getlast10Records",
            "outputs": [
                {
                    "components": [
                        {
                            "internalType": "uint256",
                            "name": "consumed",
                            "type": "uint256"
                        },
                        {
                            "internalType": "uint256",
                            "name": "produced",
                            "type": "uint256"
                        },
                        {
                            "internalType": "uint256",
                            "name": "date",
                            "type": "uint256"
                        }
                    ],
                    "internalType": "struct Lighting.ElectricityRecord[]",
                    "name": "",
                    "type": "tuple[]"
                }
            ],
            "stateMutability": "view",
            "type": "function"
        },
        {
            "inputs": [
                {
                    "internalType": "uint256",
                    "name": "",
                    "type": "uint256"
                },
                {
                    "internalType": "uint256",
                    "name": "",
                    "type": "uint256"
                }
            ],
            "name": "last10EntityRecords",
            "outputs": [
                {
                    "internalType": "uint256",
                    "name": "consumed",
                    "type": "uint256"
                },
                {
                    "internalType": "uint256",
                    "name": "produced",
                    "type": "uint256"
                },
                {
                    "internalType": "uint256",
                    "name": "date",
                    "type": "uint256"
                }
            ],
            "stateMutability": "view",
            "type": "function"
        },
        {
            "inputs": [
                {
                    "internalType": "uint256",
                    "name": "",
                    "type": "uint256"
                }
            ],
            "name": "last10Records",
            "outputs": [
                {
                    "internalType": "uint256",
                    "name": "consumed",
                    "type": "uint256"
                },
                {
                    "internalType": "uint256",
                    "name": "produced",
                    "type": "uint256"
                },
                {
                    "internalType": "uint256",
                    "name": "date",
                    "type": "uint256"
                }
            ],
            "stateMutability": "view",
            "type": "function"
        },
        {
            "inputs": [],
            "name": "oracle",
            "outputs": [
                {
                    "internalType": "address",
                    "name": "",
                    "type": "address"
                }
            ],
            "stateMutability": "view",
            "type": "function"
        }
    ],
    "bytecode": "0x608060405234801561001057600080fd5b50610abc806100206000396000f3fe608060405234801561001057600080fd5b506004361061009e5760003560e01c8063a273b47d11610066578063a273b47d1461015d578063a540e9ab1461018f578063de33857e146101bf578063e98f4900146101ef578063f10136be146102215761009e565b806334768b87146100a357806358ea667f146100d55780635d960cb2146100f15780637dc0d1d01461012157806399e6e9991461013f575b600080fd5b6100bd60048036038101906100b8919061066a565b610251565b6040516100cc939291906108b8565b60405180910390f35b6100ef60048036038101906100ea91906106cf565b61028b565b005b61010b60048036038101906101069190610693565b6103a9565b6040516101189190610882565b60405180910390f35b610129610406565b6040516101369190610845565b60405180910390f35b61014761042a565b6040516101549190610860565b60405180910390f35b61017760048036038101906101729190610693565b6104a7565b604051610186939291906108b8565b60405180910390f35b6101a960048036038101906101a49190610693565b6104de565b6040516101b6919061089d565b60405180910390f35b6101d960048036038101906101d4919061066a565b610510565b6040516101e69190610860565b60405180910390f35b61020960048036038101906102049190610693565b6105a0565b604051610218939291906108b8565b60405180910390f35b61023b60048036038101906102369190610693565b6105e7565b604051610248919061089d565b60405180910390f35b6003818154811061026157600080fd5b90600052602060002090600302016000915090508060000154908060010154908060020154905083565b600a6002600085815260200190815260200160002080549050141561032557600260008481526020019081526020016000208054806102f3577f4e487b7100000000000000000000000000000000000000000000000000000000600052603160045260246000fd5b600190038181906000526020600020906003020160008082016000905560018201600090556002820160009055505090555b80600160008581526020019081526020016000206000848152602001908152602001600020818161035691906109e5565b9050506002600084815260200190815260200160002081908060018154018082558091505060019003906000526020600020906003020160009091909190915081816103a291906109e5565b5050505050565b6103b1610619565b6001600084815260200190815260200160002060008381526020019081526020016000206040518060600160405290816000820154815260200160018201548152602001600282015481525050905092915050565b60008054906101000a900473ffffffffffffffffffffffffffffffffffffffff1681565b60606003805480602002602001604051908101604052809291908181526020016000905b8282101561049e578382906000526020600020906003020160405180606001604052908160008201548152602001600182015481526020016002820154815250508152602001906001019061044e565b50505050905090565b6001602052816000526040600020602052806000526040600020600091509150508060000154908060010154908060020154905083565b600060016000848152602001908152602001600020600083815260200190815260200160002060000154905092915050565b606060026000838152602001908152602001600020805480602002602001604051908101604052809291908181526020016000905b828210156105955783829060005260206000209060030201604051806060016040529081600082015481526020016001820154815260200160028201548152505081526020019060010190610545565b505050509050919050565b600260205281600052604060002081815481106105bc57600080fd5b9060005260206000209060030201600091509150508060000154908060010154908060020154905083565b600060016000848152602001908152602001600020600083815260200190815260200160002060010154905092915050565b60405180606001604052806000815260200160008152602001600081525090565b60006060828403121561064c57600080fd5b81905092915050565b60008135905061066481610a6f565b92915050565b60006020828403121561067c57600080fd5b600061068a84828501610655565b91505092915050565b600080604083850312156106a657600080fd5b60006106b485828601610655565b92505060206106c585828601610655565b9150509250929050565b600080600060a084860312156106e457600080fd5b60006106f286828701610655565b935050602061070386828701610655565b92505060406107148682870161063a565b9150509250925092565b600061072a83836107a3565b60608301905092915050565b61073f81610928565b82525050565b6000610750826108ff565b61075a8185610917565b9350610765836108ef565b8060005b8381101561079657815161077d888261071e565b97506107888361090a565b925050600181019050610769565b5085935050505092915050565b6060820160008201516107b96000850182610827565b5060208201516107cc6020850182610827565b5060408201516107df6040850182610827565b50505050565b6060820160008201516107fb6000850182610827565b50602082015161080e6020850182610827565b5060408201516108216040850182610827565b50505050565b6108308161095a565b82525050565b61083f8161095a565b82525050565b600060208201905061085a6000830184610736565b92915050565b6000602082019050818103600083015261087a8184610745565b905092915050565b600060608201905061089760008301846107e5565b92915050565b60006020820190506108b26000830184610836565b92915050565b60006060820190506108cd6000830186610836565b6108da6020830185610836565b6108e76040830184610836565b949350505050565b6000819050602082019050919050565b600081519050919050565b6000602082019050919050565b600082825260208201905092915050565b60006109338261093a565b9050919050565b600073ffffffffffffffffffffffffffffffffffffffff82169050919050565b6000819050919050565b600061096f8261095a565b9050919050565b6000819050919050565b6000813561098d81610a6f565b80915050919050565b60008160001b9050919050565b60007fffffffffffffffffffffffffffffffffffffffffffffffffffffffffffffffff6109cf84610996565b9350801983169250808416831791505092915050565b6000810160008301806109f781610980565b9050610a038184610a4c565b505050600181016020830180610a1881610980565b9050610a248184610a4c565b505050600281016040830180610a3981610980565b9050610a458184610a4c565b5050505050565b610a5582610964565b610a68610a6182610976565b83546109a3565b8255505050565b610a788161095a565b8114610a8357600080fd5b5056fea2646970667358221220cab4afa82d72e0078c73d86cebbffe027fcef25ebf1082d4bb0cf34fd169c17664736f6c63430008000033",
    "linkReferences": {},
    "deployedLinkReferences": {}
}