{
  "_format": "hh-sol-artifact-1",
  "contractName": "Lighting",
  "sourceName": "contracts/lighting.sol",
  "abi": [
    {
      "inputs": [
        {
          "internalType": "uint256",
          "name": "producerId",
          "type": "uint256"
        },
        {
          "internalType": "uint256",
          "name": "epochDate",
          "type": "uint256"
        },
        {
          "components": [
            {
              "internalType": "uint256",
              "name": "consumed",
              "type": "uint256"
            },
            {
              "internalType": "uint256",
              "name": "produced",
              "type": "uint256"
            },
            {
              "internalType": "uint256",
              "name": "date",
              "type": "uint256"
            }
          ],
          "internalType": "struct Lighting.ElectricityRecord",
          "name": "record",
          "type": "tuple"
        }
      ],
      "name": "addRecord",
      "outputs": [],
      "stateMutability": "nonpayable",
      "type": "function"
    },
    {
      "inputs": [
        {
          "internalType": "uint256",
          "name": "",
          "type": "uint256"
        },
        {
          "internalType": "uint256",
          "name": "",
          "type": "uint256"
        }
      ],
      "name": "electricalRecords",
      "outputs": [
        {
          "internalType": "uint256",
          "name": "consumed",
          "type": "uint256"
        },
        {
          "internalType": "uint256",
          "name": "produced",
          "type": "uint256"
        },
        {
          "internalType": "uint256",
          "name": "date",
          "type": "uint256"
        }
      ],
      "stateMutability": "view",
      "type": "function"
    },
    {
      "inputs": [
        {
          "internalType": "uint256",
          "name": "producerId",
          "type": "uint256"
        },
        {
          "internalType": "uint256",
          "name": "dateInEpoch",
          "type": "uint256"
        }
      ],
      "name": "getCompanyRecord",
      "outputs": [
        {
          "components": [
            {
              "internalType": "uint256",
              "name": "consumed",
              "type": "uint256"
            },
            {
              "internalType": "uint256",
              "name": "produced",
              "type": "uint256"
            },
            {
              "internalType": "uint256",
              "name": "date",
              "type": "uint256"
            }
          ],
          "internalType": "struct Lighting.ElectricityRecord",
          "name": "",
          "type": "tuple"
        }
      ],
      "stateMutability": "view",
      "type": "function"
    },
    {
      "inputs": [
        {
          "internalType": "uint256",
          "name": "producerId",
          "type": "uint256"
        },
        {
          "internalType": "uint256",
          "name": "dateInEpoch",
          "type": "uint256"
        }
      ],
      "name": "getConsumedRecord",
      "outputs": [
        {
          "internalType": "uint256",
          "name": "",
          "type": "uint256"
        }
      ],
      "stateMutability": "view",
      "type": "function"
    },
    {
      "inputs": [
        {
          "internalType": "uint256",
          "name": "producerId",
          "type": "uint256"
        }
      ],
      "name": "getLast10Records",
      "outputs": [
        {
          "components": [
            {
              "internalType": "uint256",
              "name": "consumed",
              "type": "uint256"
            },
            {
              "internalType": "uint256",
              "name": "produced",
              "type": "uint256"
            },
            {
              "internalType": "uint256",
              "name": "date",
              "type": "uint256"
            }
          ],
          "internalType": "struct Lighting.ElectricityRecord[]",
          "name": "",
          "type": "tuple[]"
        }
      ],
      "stateMutability": "view",
      "type": "function"
    },
    {
      "inputs": [
        {
          "internalType": "uint256",
          "name": "producerId",
          "type": "uint256"
        },
        {
          "internalType": "uint256",
          "name": "dateInEpoch",
          "type": "uint256"
        }
      ],
      "name": "getProducedRecord",
      "outputs": [
        {
          "internalType": "uint256",
          "name": "",
          "type": "uint256"
        }
      ],
      "stateMutability": "view",
      "type": "function"
    },
    {
      "inputs": [
        {
          "internalType": "uint256",
          "name": "",
          "type": "uint256"
        },
        {
          "internalType": "uint256",
          "name": "",
          "type": "uint256"
        }
      ],
      "name": "last10Records",
      "outputs": [
        {
          "internalType": "uint256",
          "name": "consumed",
          "type": "uint256"
        },
        {
          "internalType": "uint256",
          "name": "produced",
          "type": "uint256"
        },
        {
          "internalType": "uint256",
          "name": "date",
          "type": "uint256"
        }
      ],
      "stateMutability": "view",
      "type": "function"
    },
    {
      "inputs": [],
      "name": "oracle",
      "outputs": [
        {
          "internalType": "address",
          "name": "",
          "type": "address"
        }
      ],
      "stateMutability": "view",
      "type": "function"
    }
  ],
  "bytecode": "0x608060405234801561001057600080fd5b5061099f806100206000396000f3fe608060405234801561001057600080fd5b50600436106100885760003560e01c8063a540e9ab1161005b578063a540e9ab14610129578063ab22d80a14610159578063bc895c411461018b578063f10136be146101bb57610088565b806358ea667f1461008d5780635d960cb2146100a95780637dc0d1d0146100d9578063a273b47d146100f7575b600080fd5b6100a760048036038101906100a291906105b2565b6101eb565b005b6100c360048036038101906100be9190610576565b610309565b6040516100d09190610765565b60405180910390f35b6100e1610366565b6040516100ee9190610728565b60405180910390f35b610111600480360381019061010c9190610576565b61038a565b6040516101209392919061079b565b60405180910390f35b610143600480360381019061013e9190610576565b6103c1565b6040516101509190610780565b60405180910390f35b610173600480360381019061016e9190610576565b6103f3565b6040516101829392919061079b565b60405180910390f35b6101a560048036038101906101a0919061054d565b61043a565b6040516101b29190610743565b60405180910390f35b6101d560048036038101906101d09190610576565b6104ca565b6040516101e29190610780565b60405180910390f35b600a600260008581526020019081526020016000208054905014156102855760026000848152602001908152602001600020805480610253577f4e487b7100000000000000000000000000000000000000000000000000000000600052603160045260246000fd5b600190038181906000526020600020906003020160008082016000905560018201600090556002820160009055505090555b8060016000858152602001908152602001600020600084815260200190815260200160002081816102b691906108c8565b90505060026000848152602001908152602001600020819080600181540180825580915050600190039060005260206000209060030201600090919091909150818161030291906108c8565b5050505050565b6103116104fc565b6001600084815260200190815260200160002060008381526020019081526020016000206040518060600160405290816000820154815260200160018201548152602001600282015481525050905092915050565b60008054906101000a900473ffffffffffffffffffffffffffffffffffffffff1681565b6001602052816000526040600020602052806000526040600020600091509150508060000154908060010154908060020154905083565b600060016000848152602001908152602001600020600083815260200190815260200160002060000154905092915050565b6002602052816000526040600020818154811061040f57600080fd5b9060005260206000209060030201600091509150508060000154908060010154908060020154905083565b606060026000838152602001908152602001600020805480602002602001604051908101604052809291908181526020016000905b828210156104bf578382906000526020600020906003020160405180606001604052908160008201548152602001600182015481526020016002820154815250508152602001906001019061046f565b505050509050919050565b600060016000848152602001908152602001600020600083815260200190815260200160002060010154905092915050565b60405180606001604052806000815260200160008152602001600081525090565b60006060828403121561052f57600080fd5b81905092915050565b60008135905061054781610952565b92915050565b60006020828403121561055f57600080fd5b600061056d84828501610538565b91505092915050565b6000806040838503121561058957600080fd5b600061059785828601610538565b92505060206105a885828601610538565b9150509250929050565b600080600060a084860312156105c757600080fd5b60006105d586828701610538565b93505060206105e686828701610538565b92505060406105f78682870161051d565b9150509250925092565b600061060d8383610686565b60608301905092915050565b6106228161080b565b82525050565b6000610633826107e2565b61063d81856107fa565b9350610648836107d2565b8060005b838110156106795781516106608882610601565b975061066b836107ed565b92505060018101905061064c565b5085935050505092915050565b60608201600082015161069c600085018261070a565b5060208201516106af602085018261070a565b5060408201516106c2604085018261070a565b50505050565b6060820160008201516106de600085018261070a565b5060208201516106f1602085018261070a565b506040820151610704604085018261070a565b50505050565b6107138161083d565b82525050565b6107228161083d565b82525050565b600060208201905061073d6000830184610619565b92915050565b6000602082019050818103600083015261075d8184610628565b905092915050565b600060608201905061077a60008301846106c8565b92915050565b60006020820190506107956000830184610719565b92915050565b60006060820190506107b06000830186610719565b6107bd6020830185610719565b6107ca6040830184610719565b949350505050565b6000819050602082019050919050565b600081519050919050565b6000602082019050919050565b600082825260208201905092915050565b60006108168261081d565b9050919050565b600073ffffffffffffffffffffffffffffffffffffffff82169050919050565b6000819050919050565b60006108528261083d565b9050919050565b6000819050919050565b6000813561087081610952565b80915050919050565b60008160001b9050919050565b60007fffffffffffffffffffffffffffffffffffffffffffffffffffffffffffffffff6108b284610879565b9350801983169250808416831791505092915050565b6000810160008301806108da81610863565b90506108e6818461092f565b5050506001810160208301806108fb81610863565b9050610907818461092f565b50505060028101604083018061091c81610863565b9050610928818461092f565b5050505050565b61093882610847565b61094b61094482610859565b8354610886565b8255505050565b61095b8161083d565b811461096657600080fd5b5056fea2646970667358221220ba94e92b3e879fefb774e8a61089fe877a65badd065f74204f8e991b1a43d96164736f6c63430008000033",
  "linkReferences": {},
  "deployedLinkReferences": {}
}